:100000000C942A000C943F000C943F000C943F0089
:100010000C943F000C943F000C943F000C943F0064
:100020000C943F000C943F000C943F000C943F0054
:100030000C943F000C943F000C943F000C943F0044
:100040000C943F000C943F000C943F000C943F0034
:100050000C943F0011241FBECFE5D4E0DEBFCDBF1E
:1000600010E0A0E6B0E0EEECF4E002C005900D92E6
:10007000A03BB107D9F70E9441000C9465020C9493
:100080000000CF93DF93D098D89A83E390E00E944A
:10009000C80180E00E9423010E94BC0081E090E042
:1000A00060E070E00E94FB0080E060E00E94BF0121
:1000B00080E690E00E94530180E061E00E94BF0171
:1000C0008CE690E00E94530180E197E224E131E068
:1000D000F9013197F1F70197D9F781E090E060E0FD
:1000E00070E00E94FB0080E060E00E94BF0189E7B1
:1000F00090E00E94530180E197E224E131E0F901B0
:100100003197F1F70197D9F7C4E1D1E0C8991AC046
:1001100081E090E060E070E00E94FB0080E060E041
:100120000E94BF018FE890E00E94530181E690E0B9
:100130000E94D30184EF91E0FE013197F1F701971E
:10014000D9F7E4CF81E090E060E070E00E94FB002E
:1001500080E060E00E94BF018DE990E00E945301C1
:1001600082E690E00E94D30184EF91E0FE01319796
:10017000F1F70197D9F7CACF80E487B987E886B944
:10018000089597B1987F97B997B18770892B87B9F0
:10019000369A349BFECF349A24B135B1C901089503
:1001A00084B3807F84BB959A969881E08A95F1F715
:1001B00021E033E0979A822F8A95F1F783B38295F5
:1001C000807F922F9A95F1F79798932F9A95F1F750
:1001D000979A922F9A95F1F793B3922F9A95F1F7F8
:1001E0009798932F9A95F1F787FDE4CF959884B36C
:1001F0008F6084BB0895282F662311F4969801C060
:10020000969A81E08A95F1F7979A85B3922F929505
:100210009F70807F982B95BB93E0892F8A95F1F78B
:100220009798892F8A95F1F7979A85B32F70807FD9
:10023000822B85BB892F8A95F1F797989A95F1F7CC
:100240000E94D00008951F93182F8CE291E024E1C2
:1002500031E0F9013197F1F70197D9F784B38F6055
:1002600084BB8F9A8E9A8D9A85B3807F85BB979831
:100270009598969881E08A95F1F7979AA99A83E0E4
:10028000982F9A95F1F797988A95F1F70E94D000E8
:10029000812F8C6060E00E94FB0088E260E00E9499
:1002A000FB001F910895CF93DF93EC0104C061E040
:1002B0000E94FB00219688818823C9F7DF91CF91A6
:1002C0000895EF92FF920F931F93DF93CF9300D087
:1002D00000D00F92CDB7DEB79C018B01FE013196A5
:1002E00085E0DF011D928A95E9F7FE0135960DC084
:1002F000C9016AE070E00E943E028083C9016AE0A1
:1003000070E00E943E029B0131972115310581F773
:10031000BFEF0F3F1B0779F420E030E0AE014F5FE5
:100320005F4F02C02F5F3F4FFA01E20FF31F808142
:100330008823C1F304C025E030E0201B310B7E018F
:100340000894E11CF11CE20EF31E890109C0F701BB
:1003500081917F01805D61E00E94FB000F5F1F4F74
:1003600005301105A4F30F900F900F900F900F9090
:10037000CF91DF911F910F91FF90EF9008958832F8
:1003800030F461118064806860E00E94FB00089591
:1003900089B990BD86E880BD88ED8AB908955F9BD4
:1003A000FECF8CB108955D9BFECF8CB908950F935D
:1003B0001F93DF93CF9300D000D00F92CDB7DEB75D
:1003C0009C018B01FE01319685E0DF011D928A952B
:1003D000E9F7FE0135960DC0C9016AE070E00E94A0
:1003E0003E028083C9016AE070E00E943E029B01E8
:1003F00031972115310581F7BFEF0F3F1B0771F4CE
:10040000A0E0B0E09E012F5F3F4F01C01196F901BF
:10041000EA0FFB1F80818823C9F304C0A5E0B0E088
:10042000A01BB10BA530B105ACF4AC0FBD1F1196EC
:100430008C915D9BFECF805D8CB980E09CE6FC01D9
:100440003197F1F7FC013197F1F7FC013197F1F7A2
:100450000197F1F70F900F900F900F900F90CF91A1
:10046000DF911F910F910895FC0104C05D9BFECFA9
:100470008CB9319680818823C9F7089597FB092E9E
:1004800007260AD077FD04D00CD006D000201AF43D
:10049000709561957F4F0895F6F7909581959F4FE0
:1004A0000895AA1BBB1B51E107C0AA1FBB1FA617BB
:1004B000B70710F0A61BB70B881F991F5A95A9F70D
:0E04C00080959095BC01CD010895F894FFCF72
:1004CE004C41425649455720475549005769746873
:1004DE002050524F544555530046495245204D2009
:1004EE0053595354454D2D2D2D2D2D2D2D2D00466B
:1004FE0049524520444554454354454400464952CB
:10050E0045204E4F20444554454354454420000059
:00000001FF
